:100F2A000A128A11E12F4630A0004530A100443050
:100F3A00A200A20B9E2FA10B9C2FA00B9A2F080098
:100F4A00031783168801031383128501031383167B
:100F5A0085010800031383127E30850008000313FD
:100F6A008312303085000800031383126D30850028
:100F7A0008000313831279308500080003138312D3
:100F8A00333085000800031383125B3085000800A4
:100F9A00031383125F308500080003138312703035
:100FAA0085000800031383127F30850008000313AD
:100FBA0083127B3085000800A527AF279827A5272D
:100FCA00B4279827A527B9279827A527BE279827A2
:100FDA00A527C3279827A527C8279827A527CD2758
:100FEA009827A527D2279827A527D7279827A5275F
:060FFA00DC279827A52763
:04400E00C418FF3F94
:00000001FF
